{
  "address": "0x5FbDB2315678afecb367f032d93F642f64180aa3",
  "abi": [
    {
      "inputs": [],
      "stateMutability": "nonpayable",
      "type": "constructor"
    },
    {
      "inputs": [],
      "name": "LOTTERY_TICKET_PRICE_ETH",
      "outputs": [
        {
          "internalType": "uint256",
          "name": "",
          "type": "uint256"
        }
      ],
      "stateMutability": "view",
      "type": "function"
    },
    {
      "inputs": [],
      "name": "MINIMUM_VOTES_PERCENTAGE_TO_WITHDRAW",
      "outputs": [
        {
          "internalType": "uint256",
          "name": "",
          "type": "uint256"
        }
      ],
      "stateMutability": "view",
      "type": "function"
    },
    {
      "inputs": [],
      "name": "fund",
      "outputs": [],
      "stateMutability": "payable",
      "type": "function"
    },
    {
      "inputs": [],
      "name": "getVotersLength",
      "outputs": [
        {
          "internalType": "uint256",
          "name": "",
          "type": "uint256"
        }
      ],
      "stateMutability": "view",
      "type": "function"
    },
    {
      "inputs": [],
      "name": "i_owner",
      "outputs": [
        {
          "internalType": "address",
          "name": "",
          "type": "address"
        }
      ],
      "stateMutability": "view",
      "type": "function"
    },
    {
      "inputs": [],
      "name": "processWithdrawals",
      "outputs": [],
      "stateMutability": "payable",
      "type": "function"
    },
    {
      "inputs": [
        {
          "internalType": "address",
          "name": "",
          "type": "address"
        }
      ],
      "name": "s_addressToAmountFunded",
      "outputs": [
        {
          "internalType": "uint256",
          "name": "",
          "type": "uint256"
        }
      ],
      "stateMutability": "view",
      "type": "function"
    },
    {
      "inputs": [
        {
          "internalType": "uint256",
          "name": "",
          "type": "uint256"
        }
      ],
      "name": "s_funders",
      "outputs": [
        {
          "internalType": "address",
          "name": "",
          "type": "address"
        }
      ],
      "stateMutability": "view",
      "type": "function"
    },
    {
      "inputs": [
        {
          "internalType": "uint256",
          "name": "",
          "type": "uint256"
        }
      ],
      "name": "s_votersWantingToWithdraw",
      "outputs": [
        {
          "internalType": "address",
          "name": "",
          "type": "address"
        }
      ],
      "stateMutability": "view",
      "type": "function"
    },
    {
      "inputs": [],
      "name": "voteToWithdraw",
      "outputs": [],
      "stateMutability": "nonpayable",
      "type": "function"
    }
  ],
  "transactionHash": "0xe701b449b3849a1fee6cedb3685b97454bc8b2bd0982bbfe267c3673f86857d0",
  "args": [],
  "numDeployments": 1,
  "solcInputHash": "93c9df596747140df1371f6b02eb22d5",
  "bytecode": "0x608060405234801561001057600080fd5b5033600360006101000a81548173ffffffffffffffffffffffffffffffffffffffff021916908373ffffffffffffffffffffffffffffffffffffffff160217905550611015806100616000396000f3fe6080604052600436106100915760003560e01c8063b60d428811610059578063b60d428814610182578063c26f77401461018c578063dba6335f146101a3578063de2237d3146101ce578063e8174186146101f957610091565b80631bf6132d146100965780632a228fc2146100d357806354861af7146100dd57806369e2d31f1461011a5780636beda3e914610157575b600080fd5b3480156100a257600080fd5b506100bd60048036038101906100b89190610a45565b610224565b6040516100ca9190610a8b565b60405180910390f35b6100db61023c565b005b3480156100e957600080fd5b5061010460048036038101906100ff9190610ad2565b610477565b6040516101119190610b0e565b60405180910390f35b34801561012657600080fd5b50610141600480360381019061013c9190610ad2565b6104b6565b60405161014e9190610b0e565b60405180910390f35b34801561016357600080fd5b5061016c6104f5565b6040516101799190610a8b565b60405180910390f35b61018a610501565b005b34801561019857600080fd5b506101a16106dd565b005b3480156101af57600080fd5b506101b8610903565b6040516101c59190610b0e565b60405180910390f35b3480156101da57600080fd5b506101e3610929565b6040516101f09190610a8b565b60405180910390f35b34801561020557600080fd5b5061020e610936565b60405161021b9190610a8b565b60405180910390f35b60006020528060005260406000206000915090505481565b60006002805490509050600060018054905090506000816064846102609190610b58565b61026a9190610bc9565b9050603281106104725760005b6001805490508110156104105760006001828154811061029a57610299610bfa565b5b9060005260206000200160009054906101000a900473ffffffffffffffffffffffffffffffffffffffff16905060008060008373ffffffffffffffffffffffffffffffffffffffff1673ffffffffffffffffffffffffffffffffffffffff16815260200190815260200160002054905060008273ffffffffffffffffffffffffffffffffffffffff168260405161033090610c5a565b60006040518083038185875af1925050503d806000811461036d576040519150601f19603f3d011682016040523d82523d6000602084013e610372565b606091505b50509050806103b6576040517f08c379a00000000000000000000000000000000000000000000000000000000081526004016103ad90610ccc565b60405180910390fd5b60008060008573ffffffffffffffffffffffffffffffffffffffff1673ffffffffffffffffffffffffffffffffffffffff16815260200190815260200160002081905550505050808061040890610cec565b915050610277565b50600067ffffffffffffffff81111561042c5761042b610d34565b5b60405190808252806020026020018201604052801561045a5781602001602082028036833780820191505090505b506001908051906020019061047092919061093b565b505b505050565b6001818154811061048757600080fd5b906000526020600020016000915054906101000a900473ffffffffffffffffffffffffffffffffffffffff1681565b600281815481106104c657600080fd5b906000526020600020016000915054906101000a900473ffffffffffffffffffffffffffffffffffffffff1681565b670de0b6b3a764000081565b34670de0b6b3a76400001461054b576040517f08c379a000000000000000000000000000000000000000000000000000000000815260040161054290610dd5565b60405180910390fd5b670de0b6b3a76400006000803373ffffffffffffffffffffffffffffffffffffffff1673ffffffffffffffffffffffffffffffffffffffff16815260200190815260200160002060008282546105a19190610df5565b9250508190555060005b600180549050811015610677573373ffffffffffffffffffffffffffffffffffffffff16600182815481106105e3576105e2610bfa565b5b9060005260206000200160009054906101000a900473ffffffffffffffffffffffffffffffffffffffff1673ffffffffffffffffffffffffffffffffffffffff1603610664576040517f08c379a000000000000000000000000000000000000000000000000000000000815260040161065b90610e9b565b60405180910390fd5b808061066f90610cec565b9150506105ab565b506001339080600181540180825580915050600190039060005260206000200160009091909190916101000a81548173ffffffffffffffffffffffffffffffffffffffff021916908373ffffffffffffffffffffffffffffffffffffffff160217905550565b60008033905060005b60018054905081101561077c578173ffffffffffffffffffffffffffffffffffffffff166001828154811061071e5761071d610bfa565b5b9060005260206000200160009054906101000a900473ffffffffffffffffffffffffffffffffffffffff1673ffffffffffffffffffffffffffffffffffffffff160361076957600192505b808061077490610cec565b9150506106e6565b5060001515821515036107c4576040517f08c379a00000000000000000000000000000000000000000000000000000000081526004016107bb90610f2d565b60405180910390fd5b60005b600280549050811015610893578173ffffffffffffffffffffffffffffffffffffffff16600282815481106107ff576107fe610bfa565b5b9060005260206000200160009054906101000a900473ffffffffffffffffffffffffffffffffffffffff1673ffffffffffffffffffffffffffffffffffffffff1603610880576040517f08c379a000000000000000000000000000000000000000000000000000000000815260040161087790610fbf565b60405180910390fd5b808061088b90610cec565b9150506107c7565b506002339080600181540180825580915050600190039060005260206000200160009091909190916101000a81548173ffffffffffffffffffffffffffffffffffffffff021916908373ffffffffffffffffffffffffffffffffffffffff1602179055506108ff61023c565b5050565b600360009054906101000a900473ffffffffffffffffffffffffffffffffffffffff1681565b6000600280549050905090565b603281565b8280548282559060005260206000209081019282156109b4579160200282015b828111156109b35782518260006101000a81548173ffffffffffffffffffffffffffffffffffffffff021916908373ffffffffffffffffffffffffffffffffffffffff1602179055509160200191906001019061095b565b5b5090506109c191906109c5565b5090565b5b808211156109de5760008160009055506001016109c6565b5090565b600080fd5b600073ffffffffffffffffffffffffffffffffffffffff82169050919050565b6000610a12826109e7565b9050919050565b610a2281610a07565b8114610a2d57600080fd5b50565b600081359050610a3f81610a19565b92915050565b600060208284031215610a5b57610a5a6109e2565b5b6000610a6984828501610a30565b91505092915050565b6000819050919050565b610a8581610a72565b82525050565b6000602082019050610aa06000830184610a7c565b92915050565b610aaf81610a72565b8114610aba57600080fd5b50565b600081359050610acc81610aa6565b92915050565b600060208284031215610ae857610ae76109e2565b5b6000610af684828501610abd565b91505092915050565b610b0881610a07565b82525050565b6000602082019050610b236000830184610aff565b92915050565b7f4e487b7100000000000000000000000000000000000000000000000000000000600052601160045260246000fd5b6000610b6382610a72565b9150610b6e83610a72565b9250828202610b7c81610a72565b91508282048414831517610b9357610b92610b29565b5b5092915050565b7f4e487b7100000000000000000000000000000000000000000000000000000000600052601260045260246000fd5b6000610bd482610a72565b9150610bdf83610a72565b925082610bef57610bee610b9a565b5b828204905092915050565b7f4e487b7100000000000000000000000000000000000000000000000000000000600052603260045260246000fd5b600081905092915050565b50565b6000610c44600083610c29565b9150610c4f82610c34565b600082019050919050565b6000610c6582610c37565b9150819050919050565b600082825260208201905092915050565b7f43616c6c206661696c6564000000000000000000000000000000000000000000600082015250565b6000610cb6600b83610c6f565b9150610cc182610c80565b602082019050919050565b60006020820190508181036000830152610ce581610ca9565b9050919050565b6000610cf782610a72565b91507fffffffffffffffffffffffffffffffffffffffffffffffffffffffffffffffff8203610d2957610d28610b29565b5b600182019050919050565b7f4e487b7100000000000000000000000000000000000000000000000000000000600052604160045260246000fd5b7f4c6f7474657279207469636b65742070726963652069732066697865642e205960008201527f6f752063616e6e6f742073656e64206d6f7265207468616e2031204554480000602082015250565b6000610dbf603e83610c6f565b9150610dca82610d63565b604082019050919050565b60006020820190508181036000830152610dee81610db2565b9050919050565b6000610e0082610a72565b9150610e0b83610a72565b9250828201905080821115610e2357610e22610b29565b5b92915050565b7f596f752063616e206f6e6c7920627579206f6e65206c6f74746572792074696360008201527f6b65740000000000000000000000000000000000000000000000000000000000602082015250565b6000610e85602383610c6f565b9150610e9082610e29565b604082019050919050565b60006020820190508181036000830152610eb481610e78565b9050919050565b7f596f75206e65656420746f20626520612066756e64657220746f20686176652060008201527f6120766f7465206f6e207769746864726177616c730000000000000000000000602082015250565b6000610f17603583610c6f565b9150610f2282610ebb565b604082019050919050565b60006020820190508181036000830152610f4681610f0a565b9050919050565b7f54686973206164647265737320697320616c6c2072656164792072656769737460008201527f65726564206173206120766f7465722100000000000000000000000000000000602082015250565b6000610fa9603083610c6f565b9150610fb482610f4d565b604082019050919050565b60006020820190508181036000830152610fd881610f9c565b905091905056fea2646970667358221220a9e92ded9ff3dbedaf845b43ec1b92fe56b24638263ad622fd48a3cd1dbcad7564736f6c63430008110033",
  "devdoc": {
    "kind": "dev",
    "methods": {},
    "version": 1
  },
  "userdoc": {
    "kind": "user",
    "methods": {},
    "version": 1
  },
  "storageLayout": {
    "storage": [
      {
        "astId": 6,
        "contract": "contracts/Lottery.sol:Lottery",
        "label": "s_addressToAmountFunded",
        "offset": 0,
        "slot": "0",
        "type": "t_mapping(t_address,t_uint256)"
      },
      {
        "astId": 9,
        "contract": "contracts/Lottery.sol:Lottery",
        "label": "s_funders",
        "offset": 0,
        "slot": "1",
        "type": "t_array(t_address)dyn_storage"
      },
      {
        "astId": 12,
        "contract": "contracts/Lottery.sol:Lottery",
        "label": "s_votersWantingToWithdraw",
        "offset": 0,
        "slot": "2",
        "type": "t_array(t_address)dyn_storage"
      },
      {
        "astId": 14,
        "contract": "contracts/Lottery.sol:Lottery",
        "label": "i_owner",
        "offset": 0,
        "slot": "3",
        "type": "t_address"
      }
    ],
    "types": {
      "t_address": {
        "encoding": "inplace",
        "label": "address",
        "numberOfBytes": "20"
      },
      "t_array(t_address)dyn_storage": {
        "base": "t_address",
        "encoding": "dynamic_array",
        "label": "address[]",
        "numberOfBytes": "32"
      },
      "t_mapping(t_address,t_uint256)": {
        "encoding": "mapping",
        "key": "t_address",
        "label": "mapping(address => uint256)",
        "numberOfBytes": "32",
        "value": "t_uint256"
      },
      "t_uint256": {
        "encoding": "inplace",
        "label": "uint256",
        "numberOfBytes": "32"
      }
    }
  }
}