{
  "address": "0x5FbDB2315678afecb367f032d93F642f64180aa3",
  "abi": [
    {
      "inputs": [],
      "stateMutability": "nonpayable",
      "type": "constructor"
    },
    {
      "inputs": [],
      "name": "LOTTERY_TICKET_PRICE_ETH",
      "outputs": [
        {
          "internalType": "uint256",
          "name": "",
          "type": "uint256"
        }
      ],
      "stateMutability": "view",
      "type": "function"
    },
    {
      "inputs": [],
      "name": "MINIMUM_VOTES_PERCENTAGE_TO_WITHDRAW",
      "outputs": [
        {
          "internalType": "uint256",
          "name": "",
          "type": "uint256"
        }
      ],
      "stateMutability": "view",
      "type": "function"
    },
    {
      "inputs": [],
      "name": "fund",
      "outputs": [],
      "stateMutability": "payable",
      "type": "function"
    },
    {
      "inputs": [],
      "name": "getVotersLength",
      "outputs": [
        {
          "internalType": "uint256",
          "name": "",
          "type": "uint256"
        }
      ],
      "stateMutability": "view",
      "type": "function"
    },
    {
      "inputs": [],
      "name": "i_owner",
      "outputs": [
        {
          "internalType": "address",
          "name": "",
          "type": "address"
        }
      ],
      "stateMutability": "view",
      "type": "function"
    },
    {
      "inputs": [],
      "name": "payFunders",
      "outputs": [],
      "stateMutability": "payable",
      "type": "function"
    },
    {
      "inputs": [],
      "name": "processWithdrawals",
      "outputs": [],
      "stateMutability": "nonpayable",
      "type": "function"
    },
    {
      "inputs": [
        {
          "internalType": "address",
          "name": "",
          "type": "address"
        }
      ],
      "name": "s_addressToAmountFunded",
      "outputs": [
        {
          "internalType": "uint256",
          "name": "",
          "type": "uint256"
        }
      ],
      "stateMutability": "view",
      "type": "function"
    },
    {
      "inputs": [
        {
          "internalType": "uint256",
          "name": "",
          "type": "uint256"
        }
      ],
      "name": "s_funders",
      "outputs": [
        {
          "internalType": "address",
          "name": "",
          "type": "address"
        }
      ],
      "stateMutability": "view",
      "type": "function"
    },
    {
      "inputs": [
        {
          "internalType": "uint256",
          "name": "",
          "type": "uint256"
        }
      ],
      "name": "s_votersWantingToWithdraw",
      "outputs": [
        {
          "internalType": "address",
          "name": "",
          "type": "address"
        }
      ],
      "stateMutability": "view",
      "type": "function"
    },
    {
      "inputs": [],
      "name": "voteToWithdraw",
      "outputs": [],
      "stateMutability": "nonpayable",
      "type": "function"
    }
  ],
  "transactionHash": "0xaffb87488ea3d0017423eadbebf7bc27b2199ae887279f6a8b838bfac6e25d6b",
  "args": [],
  "numDeployments": 1,
  "solcInputHash": "28371c8354b3c290f6b38e326bb0eaa6",
  "bytecode": "0x608060405234801561001057600080fd5b5033600360006101000a81548173ffffffffffffffffffffffffffffffffffffffff021916908373ffffffffffffffffffffffffffffffffffffffff1602179055506112f6806100616000396000f3fe60806040526004361061009c5760003560e01c8063a0b51ca511610064578063a0b51ca51461019a578063b60d4288146101a4578063c26f7740146101ae578063dba6335f146101c5578063de2237d3146101f0578063e81741861461021b5761009c565b80631bf6132d146100a15780632a228fc2146100de57806354861af7146100f557806369e2d31f146101325780636beda3e91461016f575b600080fd5b3480156100ad57600080fd5b506100c860048036038101906100c39190610d26565b610246565b6040516100d59190610d6c565b60405180910390f35b3480156100ea57600080fd5b506100f361025e565b005b34801561010157600080fd5b5061011c60048036038101906101179190610db3565b6104f9565b6040516101299190610def565b60405180910390f35b34801561013e57600080fd5b5061015960048036038101906101549190610db3565b610538565b6040516101669190610def565b60405180910390f35b34801561017b57600080fd5b50610184610577565b6040516101919190610d6c565b60405180910390f35b6101a2610583565b005b6101ac6107e2565b005b3480156101ba57600080fd5b506101c36109be565b005b3480156101d157600080fd5b506101da610be4565b6040516101e79190610def565b60405180910390f35b3480156101fc57600080fd5b50610205610c0a565b6040516102129190610d6c565b60405180910390f35b34801561022757600080fd5b50610230610c17565b60405161023d9190610d6c565b60405180910390f35b60006020528060005260406000206000915090505481565b60006002805490509050600060018054905090506000816064846102829190610e39565b61028c9190610eaa565b9050603281106104f45760005b600180549050811015610432576000600182815481106102bc576102bb610edb565b5b9060005260206000200160009054906101000a900473ffffffffffffffffffffffffffffffffffffffff16905060008060008373ffffffffffffffffffffffffffffffffffffffff1673ffffffffffffffffffffffffffffffffffffffff16815260200190815260200160002054905060008273ffffffffffffffffffffffffffffffffffffffff168260405161035290610f3b565b60006040518083038185875af1925050503d806000811461038f576040519150601f19603f3d011682016040523d82523d6000602084013e610394565b606091505b50509050806103d8576040517f08c379a00000000000000000000000000000000000000000000000000000000081526004016103cf90610fad565b60405180910390fd5b60008060008573ffffffffffffffffffffffffffffffffffffffff1673ffffffffffffffffffffffffffffffffffffffff16815260200190815260200160002081905550505050808061042a90610fcd565b915050610299565b50600067ffffffffffffffff81111561044e5761044d611015565b5b60405190808252806020026020018201604052801561047c5781602001602082028036833780820191505090505b5060019080519060200190610492929190610c1c565b50600067ffffffffffffffff8111156104ae576104ad611015565b5b6040519080825280602002602001820160405280156104dc5781602001602082028036833780820191505090505b50600290805190602001906104f2929190610c1c565b505b505050565b6001818154811061050957600080fd5b906000526020600020016000915054906101000a900473ffffffffffffffffffffffffffffffffffffffff1681565b6002818154811061054857600080fd5b906000526020600020016000915054906101000a900473ffffffffffffffffffffffffffffffffffffffff1681565b670de0b6b3a764000081565b60005b60018054905081101561071f576000600182815481106105a9576105a8610edb565b5b9060005260206000200160009054906101000a900473ffffffffffffffffffffffffffffffffffffffff16905060008060008373ffffffffffffffffffffffffffffffffffffffff1673ffffffffffffffffffffffffffffffffffffffff16815260200190815260200160002054905060008273ffffffffffffffffffffffffffffffffffffffff168260405161063f90610f3b565b60006040518083038185875af1925050503d806000811461067c576040519150601f19603f3d011682016040523d82523d6000602084013e610681565b606091505b50509050806106c5576040517f08c379a00000000000000000000000000000000000000000000000000000000081526004016106bc90610fad565b60405180910390fd5b60008060008573ffffffffffffffffffffffffffffffffffffffff1673ffffffffffffffffffffffffffffffffffffffff16815260200190815260200160002081905550505050808061071790610fcd565b915050610586565b50600067ffffffffffffffff81111561073b5761073a611015565b5b6040519080825280602002602001820160405280156107695781602001602082028036833780820191505090505b506001908051906020019061077f929190610c1c565b50600067ffffffffffffffff81111561079b5761079a611015565b5b6040519080825280602002602001820160405280156107c95781602001602082028036833780820191505090505b50600290805190602001906107df929190610c1c565b50565b34670de0b6b3a76400001461082c576040517f08c379a0000000000000000000000000000000000000000000000000000000008152600401610823906110b6565b60405180910390fd5b670de0b6b3a76400006000803373ffffffffffffffffffffffffffffffffffffffff1673ffffffffffffffffffffffffffffffffffffffff168152602001908152602001600020600082825461088291906110d6565b9250508190555060005b600180549050811015610958573373ffffffffffffffffffffffffffffffffffffffff16600182815481106108c4576108c3610edb565b5b9060005260206000200160009054906101000a900473ffffffffffffffffffffffffffffffffffffffff1673ffffffffffffffffffffffffffffffffffffffff1603610945576040517f08c379a000000000000000000000000000000000000000000000000000000000815260040161093c9061117c565b60405180910390fd5b808061095090610fcd565b91505061088c565b506001339080600181540180825580915050600190039060005260206000200160009091909190916101000a81548173ffffffffffffffffffffffffffffffffffffffff021916908373ffffffffffffffffffffffffffffffffffffffff160217905550565b60008033905060005b600180549050811015610a5d578173ffffffffffffffffffffffffffffffffffffffff16600182815481106109ff576109fe610edb565b5b9060005260206000200160009054906101000a900473ffffffffffffffffffffffffffffffffffffffff1673ffffffffffffffffffffffffffffffffffffffff1603610a4a57600192505b8080610a5590610fcd565b9150506109c7565b506000151582151503610aa5576040517f08c379a0000000000000000000000000000000000000000000000000000000008152600401610a9c9061120e565b60405180910390fd5b60005b600280549050811015610b74578173ffffffffffffffffffffffffffffffffffffffff1660028281548110610ae057610adf610edb565b5b9060005260206000200160009054906101000a900473ffffffffffffffffffffffffffffffffffffffff1673ffffffffffffffffffffffffffffffffffffffff1603610b61576040517f08c379a0000000000000000000000000000000000000000000000000000000008152600401610b58906112a0565b60405180910390fd5b8080610b6c90610fcd565b915050610aa8565b506002339080600181540180825580915050600190039060005260206000200160009091909190916101000a81548173ffffffffffffffffffffffffffffffffffffffff021916908373ffffffffffffffffffffffffffffffffffffffff160217905550610be061025e565b5050565b600360009054906101000a900473ffffffffffffffffffffffffffffffffffffffff1681565b6000600280549050905090565b603281565b828054828255906000526020600020908101928215610c95579160200282015b82811115610c945782518260006101000a81548173ffffffffffffffffffffffffffffffffffffffff021916908373ffffffffffffffffffffffffffffffffffffffff16021790555091602001919060010190610c3c565b5b509050610ca29190610ca6565b5090565b5b80821115610cbf576000816000905550600101610ca7565b5090565b600080fd5b600073ffffffffffffffffffffffffffffffffffffffff82169050919050565b6000610cf382610cc8565b9050919050565b610d0381610ce8565b8114610d0e57600080fd5b50565b600081359050610d2081610cfa565b92915050565b600060208284031215610d3c57610d3b610cc3565b5b6000610d4a84828501610d11565b91505092915050565b6000819050919050565b610d6681610d53565b82525050565b6000602082019050610d816000830184610d5d565b92915050565b610d9081610d53565b8114610d9b57600080fd5b50565b600081359050610dad81610d87565b92915050565b600060208284031215610dc957610dc8610cc3565b5b6000610dd784828501610d9e565b91505092915050565b610de981610ce8565b82525050565b6000602082019050610e046000830184610de0565b92915050565b7f4e487b7100000000000000000000000000000000000000000000000000000000600052601160045260246000fd5b6000610e4482610d53565b9150610e4f83610d53565b9250828202610e5d81610d53565b91508282048414831517610e7457610e73610e0a565b5b5092915050565b7f4e487b7100000000000000000000000000000000000000000000000000000000600052601260045260246000fd5b6000610eb582610d53565b9150610ec083610d53565b925082610ed057610ecf610e7b565b5b828204905092915050565b7f4e487b7100000000000000000000000000000000000000000000000000000000600052603260045260246000fd5b600081905092915050565b50565b6000610f25600083610f0a565b9150610f3082610f15565b600082019050919050565b6000610f4682610f18565b9150819050919050565b600082825260208201905092915050565b7f43616c6c206661696c6564000000000000000000000000000000000000000000600082015250565b6000610f97600b83610f50565b9150610fa282610f61565b602082019050919050565b60006020820190508181036000830152610fc681610f8a565b9050919050565b6000610fd882610d53565b91507fffffffffffffffffffffffffffffffffffffffffffffffffffffffffffffffff820361100a57611009610e0a565b5b600182019050919050565b7f4e487b7100000000000000000000000000000000000000000000000000000000600052604160045260246000fd5b7f4c6f7474657279207469636b65742070726963652069732066697865642e205960008201527f6f752063616e6e6f742073656e64206d6f7265207468616e2031204554480000602082015250565b60006110a0603e83610f50565b91506110ab82611044565b604082019050919050565b600060208201905081810360008301526110cf81611093565b9050919050565b60006110e182610d53565b91506110ec83610d53565b925082820190508082111561110457611103610e0a565b5b92915050565b7f596f752063616e206f6e6c7920627579206f6e65206c6f74746572792074696360008201527f6b65740000000000000000000000000000000000000000000000000000000000602082015250565b6000611166602383610f50565b91506111718261110a565b604082019050919050565b6000602082019050818103600083015261119581611159565b9050919050565b7f596f75206e65656420746f20626520612066756e64657220746f20686176652060008201527f6120766f7465206f6e207769746864726177616c730000000000000000000000602082015250565b60006111f8603583610f50565b91506112038261119c565b604082019050919050565b60006020820190508181036000830152611227816111eb565b9050919050565b7f54686973206164647265737320697320616c6c2072656164792072656769737460008201527f65726564206173206120766f7465722100000000000000000000000000000000602082015250565b600061128a603083610f50565b91506112958261122e565b604082019050919050565b600060208201905081810360008301526112b98161127d565b905091905056fea2646970667358221220190a36a2b7c12f7523f39b42dcdebaeeb0626117cea4f736cf5f4e0abc4caf3d64736f6c63430008110033",
  "devdoc": {
    "kind": "dev",
    "methods": {},
    "version": 1
  },
  "userdoc": {
    "kind": "user",
    "methods": {},
    "version": 1
  },
  "storageLayout": {
    "storage": [
      {
        "astId": 6,
        "contract": "contracts/Lottery.sol:Lottery",
        "label": "s_addressToAmountFunded",
        "offset": 0,
        "slot": "0",
        "type": "t_mapping(t_address,t_uint256)"
      },
      {
        "astId": 9,
        "contract": "contracts/Lottery.sol:Lottery",
        "label": "s_funders",
        "offset": 0,
        "slot": "1",
        "type": "t_array(t_address)dyn_storage"
      },
      {
        "astId": 12,
        "contract": "contracts/Lottery.sol:Lottery",
        "label": "s_votersWantingToWithdraw",
        "offset": 0,
        "slot": "2",
        "type": "t_array(t_address)dyn_storage"
      },
      {
        "astId": 14,
        "contract": "contracts/Lottery.sol:Lottery",
        "label": "i_owner",
        "offset": 0,
        "slot": "3",
        "type": "t_address"
      },
      {
        "astId": 17,
        "contract": "contracts/Lottery.sol:Lottery",
        "label": "s_fooArray",
        "offset": 0,
        "slot": "4",
        "type": "t_array(t_uint256)dyn_storage"
      }
    ],
    "types": {
      "t_address": {
        "encoding": "inplace",
        "label": "address",
        "numberOfBytes": "20"
      },
      "t_array(t_address)dyn_storage": {
        "base": "t_address",
        "encoding": "dynamic_array",
        "label": "address[]",
        "numberOfBytes": "32"
      },
      "t_array(t_uint256)dyn_storage": {
        "base": "t_uint256",
        "encoding": "dynamic_array",
        "label": "uint256[]",
        "numberOfBytes": "32"
      },
      "t_mapping(t_address,t_uint256)": {
        "encoding": "mapping",
        "key": "t_address",
        "label": "mapping(address => uint256)",
        "numberOfBytes": "32",
        "value": "t_uint256"
      },
      "t_uint256": {
        "encoding": "inplace",
        "label": "uint256",
        "numberOfBytes": "32"
      }
    }
  }
}