{
  "address": "0x329A9f2EbE8281934f4De45Ea4f4e752B19C8840",
  "abi": [
    {
      "inputs": [
        {
          "internalType": "uint64",
          "name": "subscriptionId",
          "type": "uint64"
        }
      ],
      "stateMutability": "nonpayable",
      "type": "constructor"
    },
    {
      "inputs": [
        {
          "internalType": "address",
          "name": "have",
          "type": "address"
        },
        {
          "internalType": "address",
          "name": "want",
          "type": "address"
        }
      ],
      "name": "OnlyCoordinatorCanFulfill",
      "type": "error"
    },
    {
      "inputs": [],
      "name": "LOTTERY_TICKET_PRICE_ETH",
      "outputs": [
        {
          "internalType": "uint256",
          "name": "",
          "type": "uint256"
        }
      ],
      "stateMutability": "view",
      "type": "function"
    },
    {
      "inputs": [],
      "name": "MINIMUM_VOTES_PERCENTAGE_TO_WITHDRAW",
      "outputs": [
        {
          "internalType": "uint256",
          "name": "",
          "type": "uint256"
        }
      ],
      "stateMutability": "view",
      "type": "function"
    },
    {
      "inputs": [],
      "name": "fund",
      "outputs": [],
      "stateMutability": "payable",
      "type": "function"
    },
    {
      "inputs": [],
      "name": "getVotersLength",
      "outputs": [
        {
          "internalType": "uint256",
          "name": "",
          "type": "uint256"
        }
      ],
      "stateMutability": "view",
      "type": "function"
    },
    {
      "inputs": [],
      "name": "i_owner",
      "outputs": [
        {
          "internalType": "address",
          "name": "",
          "type": "address"
        }
      ],
      "stateMutability": "view",
      "type": "function"
    },
    {
      "inputs": [],
      "name": "payFunders",
      "outputs": [],
      "stateMutability": "payable",
      "type": "function"
    },
    {
      "inputs": [],
      "name": "processWithdrawals",
      "outputs": [],
      "stateMutability": "nonpayable",
      "type": "function"
    },
    {
      "inputs": [
        {
          "internalType": "uint256",
          "name": "requestId",
          "type": "uint256"
        },
        {
          "internalType": "uint256[]",
          "name": "randomWords",
          "type": "uint256[]"
        }
      ],
      "name": "rawFulfillRandomWords",
      "outputs": [],
      "stateMutability": "nonpayable",
      "type": "function"
    },
    {
      "inputs": [],
      "name": "requestRandomWords",
      "outputs": [],
      "stateMutability": "nonpayable",
      "type": "function"
    },
    {
      "inputs": [],
      "name": "runLottery",
      "outputs": [],
      "stateMutability": "nonpayable",
      "type": "function"
    },
    {
      "inputs": [
        {
          "internalType": "address",
          "name": "",
          "type": "address"
        }
      ],
      "name": "s_addressToAmountFunded",
      "outputs": [
        {
          "internalType": "uint256",
          "name": "",
          "type": "uint256"
        }
      ],
      "stateMutability": "view",
      "type": "function"
    },
    {
      "inputs": [
        {
          "internalType": "uint256",
          "name": "",
          "type": "uint256"
        }
      ],
      "name": "s_funders",
      "outputs": [
        {
          "internalType": "address",
          "name": "",
          "type": "address"
        }
      ],
      "stateMutability": "view",
      "type": "function"
    },
    {
      "inputs": [
        {
          "internalType": "uint256",
          "name": "",
          "type": "uint256"
        }
      ],
      "name": "s_randomWords",
      "outputs": [
        {
          "internalType": "uint256",
          "name": "",
          "type": "uint256"
        }
      ],
      "stateMutability": "view",
      "type": "function"
    },
    {
      "inputs": [],
      "name": "s_requestId",
      "outputs": [
        {
          "internalType": "uint256",
          "name": "",
          "type": "uint256"
        }
      ],
      "stateMutability": "view",
      "type": "function"
    },
    {
      "inputs": [
        {
          "internalType": "uint256",
          "name": "",
          "type": "uint256"
        }
      ],
      "name": "s_votersWantingToWithdraw",
      "outputs": [
        {
          "internalType": "address",
          "name": "",
          "type": "address"
        }
      ],
      "stateMutability": "view",
      "type": "function"
    },
    {
      "inputs": [],
      "name": "voteToWithdraw",
      "outputs": [],
      "stateMutability": "nonpayable",
      "type": "function"
    }
  ],
  "transactionHash": "0x98713708fa38a172b83bd53d0f5641ae880f5112740a511cffdd5c81bfd85957",
  "args": [
    4631
  ],
  "numDeployments": 5,
  "solcInputHash": "dbe18e3bcfab27db7b89ddbc25f201cd",
  "bytecode": "0x60a0604052732ca8e0c643bde4c2e08ab1fa0da3401adad7734d600260006101000a81548173ffffffffffffffffffffffffffffffffffffffff021916908373ffffffffffffffffffffffffffffffffffffffff16021790555073326c977e6efc84e512bb9c30f76e30c160ed06fb600360006101000a81548173ffffffffffffffffffffffffffffffffffffffff021916908373ffffffffffffffffffffffffffffffffffffffff1602179055507f79d3d8832d904592c0bf9818b621522c988bb8b0c05cdc3b15aea1b6e8db0c1560001b6004556003600560006101000a81548161ffff021916908361ffff160217905550620186a0600560026101000a81548163ffffffff021916908363ffffffff1602179055506001600560066101000a81548163ffffffff021916908363ffffffff1602179055503480156200014657600080fd5b5060405162001eca38038062001eca83398181016040528101906200016c919062000344565b600260009054906101000a900473ffffffffffffffffffffffffffffffffffffffff168073ffffffffffffffffffffffffffffffffffffffff1660808173ffffffffffffffffffffffffffffffffffffffff168152505050600260009054906101000a900473ffffffffffffffffffffffffffffffffffffffff166000806101000a81548173ffffffffffffffffffffffffffffffffffffffff021916908373ffffffffffffffffffffffffffffffffffffffff160217905550600360009054906101000a900473ffffffffffffffffffffffffffffffffffffffff16600160006101000a81548173ffffffffffffffffffffffffffffffffffffffff021916908373ffffffffffffffffffffffffffffffffffffffff16021790555080600160146101000a81548167ffffffffffffffff021916908367ffffffffffffffff16021790555033600b60006101000a81548173ffffffffffffffffffffffffffffffffffffffff021916908373ffffffffffffffffffffffffffffffffffffffff1602179055505062000376565b600080fd5b600067ffffffffffffffff82169050919050565b6200031e81620002ff565b81146200032a57600080fd5b50565b6000815190506200033e8162000313565b92915050565b6000602082840312156200035d576200035c620002fa565b5b60006200036d848285016200032d565b91505092915050565b608051611b31620003996000396000818161037601526103ca0152611b316000f3fe6080604052600436106100f35760003560e01c8063b60d42881161008a578063e0c8628911610059578063e0c86289146102b2578063e8174186146102c9578063e89e106a146102f4578063f6eaffc81461031f576100f3565b8063b60d42881461023b578063c26f774014610245578063dba6335f1461025c578063de2237d314610287576100f3565b80635674a3ed116100c65780635674a3ed146101b257806369e2d31f146101c95780636beda3e914610206578063a0b51ca514610231576100f3565b80631bf6132d146100f85780631fe543e3146101355780632a228fc21461015e57806354861af714610175575b600080fd5b34801561010457600080fd5b5061011f600480360381019061011a9190611274565b61035c565b60405161012c91906112ba565b60405180910390f35b34801561014157600080fd5b5061015c6004803603810190610157919061145a565b610374565b005b34801561016a57600080fd5b50610173610434565b005b34801561018157600080fd5b5061019c600480360381019061019791906114b6565b6106d1565b6040516101a991906114f2565b60405180910390f35b3480156101be57600080fd5b506101c7610710565b005b3480156101d557600080fd5b506101f060048036038101906101eb91906114b6565b610858565b6040516101fd91906114f2565b60405180910390f35b34801561021257600080fd5b5061021b610897565b60405161022891906112ba565b60405180910390f35b6102396108a3565b005b610243610b04565b005b34801561025157600080fd5b5061025a610ce1565b005b34801561026857600080fd5b50610271610f07565b60405161027e91906114f2565b60405180910390f35b34801561029357600080fd5b5061029c610f2d565b6040516102a991906112ba565b60405180910390f35b3480156102be57600080fd5b506102c7610f3a565b005b3480156102d557600080fd5b506102de611032565b6040516102eb91906112ba565b60405180910390f35b34801561030057600080fd5b50610309611037565b60405161031691906112ba565b60405180910390f35b34801561032b57600080fd5b50610346600480360381019061034191906114b6565b61103d565b60405161035391906112ba565b60405180910390f35b60086020528060005260406000206000915090505481565b7f000000000000000000000000000000000000000000000000000000000000000073ffffffffffffffffffffffffffffffffffffffff163373ffffffffffffffffffffffffffffffffffffffff161461042657337f00000000000000000000000000000000000000000000000000000000000000006040517f1cf993f400000000000000000000000000000000000000000000000000000000815260040161041d92919061150d565b60405180910390fd5b6104308282611061565b5050565b6000600a805490509050600060098054905090506000816064846104589190611565565b61046291906115d6565b9050603281106106cc5760005b60098054905081101561060a5760006009828154811061049257610491611607565b5b9060005260206000200160009054906101000a900473ffffffffffffffffffffffffffffffffffffffff1690506000600860008373ffffffffffffffffffffffffffffffffffffffff1673ffffffffffffffffffffffffffffffffffffffff16815260200190815260200160002054905060008273ffffffffffffffffffffffffffffffffffffffff168260405161052990611667565b60006040518083038185875af1925050503d8060008114610566576040519150601f19603f3d011682016040523d82523d6000602084013e61056b565b606091505b50509050806105af576040517f08c379a00000000000000000000000000000000000000000000000000000000081526004016105a6906116d9565b60405180910390fd5b6000600860008573ffffffffffffffffffffffffffffffffffffffff1673ffffffffffffffffffffffffffffffffffffffff168152602001908152602001600020819055505050508080610602906116f9565b91505061046f565b50600067ffffffffffffffff81111561062657610625611317565b5b6040519080825280602002602001820160405280156106545781602001602082028036833780820191505090505b506009908051906020019061066a929190611084565b50600067ffffffffffffffff81111561068657610685611317565b5b6040519080825280602002602001820160405280156106b45781602001602082028036833780820191505090505b50600a90805190602001906106ca929190611084565b505b505050565b600981815481106106e157600080fd5b906000526020600020016000915054906101000a900473ffffffffffffffffffffffffffffffffffffffff1681565b6000600980549050600660008154811061072d5761072c611607565b5b90600052602060002001546107429190611741565b905060006009828154811061075a57610759611607565b5b9060005260206000200160009054906101000a900473ffffffffffffffffffffffffffffffffffffffff169050600067ffffffffffffffff8111156107a2576107a1611317565b5b6040519080825280602002602001820160405280156107d05781602001602082028036833780820191505090505b50600990805190602001906107e692919061110e565b5060008173ffffffffffffffffffffffffffffffffffffffff164760405161080d90611667565b60006040518083038185875af1925050503d806000811461084a576040519150601f19603f3d011682016040523d82523d6000602084013e61084f565b606091505b50509050505050565b600a818154811061086857600080fd5b906000526020600020016000915054906101000a900473ffffffffffffffffffffffffffffffffffffffff1681565b67016345785d8a000081565b60005b600980549050811015610a41576000600982815481106108c9576108c8611607565b5b9060005260206000200160009054906101000a900473ffffffffffffffffffffffffffffffffffffffff1690506000600860008373ffffffffffffffffffffffffffffffffffffffff1673ffffffffffffffffffffffffffffffffffffffff16815260200190815260200160002054905060008273ffffffffffffffffffffffffffffffffffffffff168260405161096090611667565b60006040518083038185875af1925050503d806000811461099d576040519150601f19603f3d011682016040523d82523d6000602084013e6109a2565b606091505b50509050806109e6576040517f08c379a00000000000000000000000000000000000000000000000000000000081526004016109dd906116d9565b60405180910390fd5b6000600860008573ffffffffffffffffffffffffffffffffffffffff1673ffffffffffffffffffffffffffffffffffffffff168152602001908152602001600020819055505050508080610a39906116f9565b9150506108a6565b50600067ffffffffffffffff811115610a5d57610a5c611317565b5b604051908082528060200260200182016040528015610a8b5781602001602082028036833780820191505090505b5060099080519060200190610aa1929190611084565b50600067ffffffffffffffff811115610abd57610abc611317565b5b604051908082528060200260200182016040528015610aeb5781602001602082028036833780820191505090505b50600a9080519060200190610b01929190611084565b50565b3467016345785d8a000014610b4e576040517f08c379a0000000000000000000000000000000000000000000000000000000008152600401610b45906117e4565b60405180910390fd5b67016345785d8a0000600860003373ffffffffffffffffffffffffffffffffffffffff1673ffffffffffffffffffffffffffffffffffffffff1681526020019081526020016000206000828254610ba59190611804565b9250508190555060005b600980549050811015610c7b573373ffffffffffffffffffffffffffffffffffffffff1660098281548110610be757610be6611607565b5b9060005260206000200160009054906101000a900473ffffffffffffffffffffffffffffffffffffffff1673ffffffffffffffffffffffffffffffffffffffff1603610c68576040517f08c379a0000000000000000000000000000000000000000000000000000000008152600401610c5f906118aa565b60405180910390fd5b8080610c73906116f9565b915050610baf565b506009339080600181540180825580915050600190039060005260206000200160009091909190916101000a81548173ffffffffffffffffffffffffffffffffffffffff021916908373ffffffffffffffffffffffffffffffffffffffff160217905550565b60008033905060005b600980549050811015610d80578173ffffffffffffffffffffffffffffffffffffffff1660098281548110610d2257610d21611607565b5b9060005260206000200160009054906101000a900473ffffffffffffffffffffffffffffffffffffffff1673ffffffffffffffffffffffffffffffffffffffff1603610d6d57600192505b8080610d78906116f9565b915050610cea565b506000151582151503610dc8576040517f08c379a0000000000000000000000000000000000000000000000000000000008152600401610dbf9061193c565b60405180910390fd5b60005b600a80549050811015610e97578173ffffffffffffffffffffffffffffffffffffffff16600a8281548110610e0357610e02611607565b5b9060005260206000200160009054906101000a900473ffffffffffffffffffffffffffffffffffffffff1673ffffffffffffffffffffffffffffffffffffffff1603610e84576040517f08c379a0000000000000000000000000000000000000000000000000000000008152600401610e7b906119ce565b60405180910390fd5b8080610e8f906116f9565b915050610dcb565b50600a339080600181540180825580915050600190039060005260206000200160009091909190916101000a81548173ffffffffffffffffffffffffffffffffffffffff021916908373ffffffffffffffffffffffffffffffffffffffff160217905550610f03610434565b5050565b600b60009054906101000a900473ffffffffffffffffffffffffffffffffffffffff1681565b6000600a80549050905090565b60008054906101000a900473ffffffffffffffffffffffffffffffffffffffff1673ffffffffffffffffffffffffffffffffffffffff16635d3b1d30600454600160149054906101000a900467ffffffffffffffff16600560009054906101000a900461ffff16600560029054906101000a900463ffffffff16600560069054906101000a900463ffffffff166040518663ffffffff1660e01b8152600401610fe7959493929190611a66565b6020604051808303816000875af1158015611006573d6000803e3d6000fd5b505050506040513d601f19601f8201168201806040525081019061102a9190611ace565b600781905550565b603281565b60075481565b6006818154811061104d57600080fd5b906000526020600020016000915090505481565b8060069080519060200190611077929190611198565b50611080610710565b5050565b8280548282559060005260206000209081019282156110fd579160200282015b828111156110fc5782518260006101000a81548173ffffffffffffffffffffffffffffffffffffffff021916908373ffffffffffffffffffffffffffffffffffffffff160217905550916020019190600101906110a4565b5b50905061110a91906111e5565b5090565b828054828255906000526020600020908101928215611187579160200282015b828111156111865782518260006101000a81548173ffffffffffffffffffffffffffffffffffffffff021916908373ffffffffffffffffffffffffffffffffffffffff1602179055509160200191906001019061112e565b5b50905061119491906111e5565b5090565b8280548282559060005260206000209081019282156111d4579160200282015b828111156111d35782518255916020019190600101906111b8565b5b5090506111e191906111e5565b5090565b5b808211156111fe5760008160009055506001016111e6565b5090565b6000604051905090565b600080fd5b600080fd5b600073ffffffffffffffffffffffffffffffffffffffff82169050919050565b600061124182611216565b9050919050565b61125181611236565b811461125c57600080fd5b50565b60008135905061126e81611248565b92915050565b60006020828403121561128a5761128961120c565b5b60006112988482850161125f565b91505092915050565b6000819050919050565b6112b4816112a1565b82525050565b60006020820190506112cf60008301846112ab565b92915050565b6112de816112a1565b81146112e957600080fd5b50565b6000813590506112fb816112d5565b92915050565b600080fd5b6000601f19601f8301169050919050565b7f4e487b7100000000000000000000000000000000000000000000000000000000600052604160045260246000fd5b61134f82611306565b810181811067ffffffffffffffff8211171561136e5761136d611317565b5b80604052505050565b6000611381611202565b905061138d8282611346565b919050565b600067ffffffffffffffff8211156113ad576113ac611317565b5b602082029050602081019050919050565b600080fd5b60006113d66113d184611392565b611377565b905080838252602082019050602084028301858111156113f9576113f86113be565b5b835b81811015611422578061140e88826112ec565b8452602084019350506020810190506113fb565b5050509392505050565b600082601f83011261144157611440611301565b5b81356114518482602086016113c3565b91505092915050565b600080604083850312156114715761147061120c565b5b600061147f858286016112ec565b925050602083013567ffffffffffffffff8111156114a05761149f611211565b5b6114ac8582860161142c565b9150509250929050565b6000602082840312156114cc576114cb61120c565b5b60006114da848285016112ec565b91505092915050565b6114ec81611236565b82525050565b600060208201905061150760008301846114e3565b92915050565b600060408201905061152260008301856114e3565b61152f60208301846114e3565b9392505050565b7f4e487b7100000000000000000000000000000000000000000000000000000000600052601160045260246000fd5b6000611570826112a1565b915061157b836112a1565b9250828202611589816112a1565b915082820484148315176115a05761159f611536565b5b5092915050565b7f4e487b7100000000000000000000000000000000000000000000000000000000600052601260045260246000fd5b60006115e1826112a1565b91506115ec836112a1565b9250826115fc576115fb6115a7565b5b828204905092915050565b7f4e487b7100000000000000000000000000000000000000000000000000000000600052603260045260246000fd5b600081905092915050565b50565b6000611651600083611636565b915061165c82611641565b600082019050919050565b600061167282611644565b9150819050919050565b600082825260208201905092915050565b7f43616c6c206661696c6564000000000000000000000000000000000000000000600082015250565b60006116c3600b8361167c565b91506116ce8261168d565b602082019050919050565b600060208201905081810360008301526116f2816116b6565b9050919050565b6000611704826112a1565b91507fffffffffffffffffffffffffffffffffffffffffffffffffffffffffffffffff820361173657611735611536565b5b600182019050919050565b600061174c826112a1565b9150611757836112a1565b925082611767576117666115a7565b5b828206905092915050565b7f4c6f7474657279207469636b65742070726963652069732066697865642e205960008201527f6f752063616e6e6f742073656e64206d6f7265207468616e20302e3120455448602082015250565b60006117ce60408361167c565b91506117d982611772565b604082019050919050565b600060208201905081810360008301526117fd816117c1565b9050919050565b600061180f826112a1565b915061181a836112a1565b925082820190508082111561183257611831611536565b5b92915050565b7f596f752063616e206f6e6c7920627579206f6e65206c6f74746572792074696360008201527f6b65740000000000000000000000000000000000000000000000000000000000602082015250565b600061189460238361167c565b915061189f82611838565b604082019050919050565b600060208201905081810360008301526118c381611887565b9050919050565b7f596f75206e65656420746f20626520612066756e64657220746f20686176652060008201527f6120766f7465206f6e207769746864726177616c730000000000000000000000602082015250565b600061192660358361167c565b9150611931826118ca565b604082019050919050565b6000602082019050818103600083015261195581611919565b9050919050565b7f54686973206164647265737320697320616c6c2072656164792072656769737460008201527f65726564206173206120766f7465722100000000000000000000000000000000602082015250565b60006119b860308361167c565b91506119c38261195c565b604082019050919050565b600060208201905081810360008301526119e7816119ab565b9050919050565b6000819050919050565b611a01816119ee565b82525050565b600067ffffffffffffffff82169050919050565b611a2481611a07565b82525050565b600061ffff82169050919050565b611a4181611a2a565b82525050565b600063ffffffff82169050919050565b611a6081611a47565b82525050565b600060a082019050611a7b60008301886119f8565b611a886020830187611a1b565b611a956040830186611a38565b611aa26060830185611a57565b611aaf6080830184611a57565b9695505050505050565b600081519050611ac8816112d5565b92915050565b600060208284031215611ae457611ae361120c565b5b6000611af284828501611ab9565b9150509291505056fea2646970667358221220d16984a545add1d6d8466822a00ab325a87df2fd9befa6ad1212c9ad55b0f24564736f6c63430008110033",
  "devdoc": {
    "kind": "dev",
    "methods": {},
    "version": 1
  },
  "userdoc": {
    "kind": "user",
    "methods": {},
    "version": 1
  },
  "storageLayout": {
    "storage": [
      {
        "astId": 259,
        "contract": "contracts/Lottery.sol:Lottery",
        "label": "COORDINATOR",
        "offset": 0,
        "slot": "0",
        "type": "t_contract(VRFCoordinatorV2Interface)248"
      },
      {
        "astId": 262,
        "contract": "contracts/Lottery.sol:Lottery",
        "label": "LINKTOKEN",
        "offset": 0,
        "slot": "1",
        "type": "t_contract(LinkTokenInterface)152"
      },
      {
        "astId": 264,
        "contract": "contracts/Lottery.sol:Lottery",
        "label": "s_subscriptionId",
        "offset": 20,
        "slot": "1",
        "type": "t_uint64"
      },
      {
        "astId": 267,
        "contract": "contracts/Lottery.sol:Lottery",
        "label": "vrfCoordinator",
        "offset": 0,
        "slot": "2",
        "type": "t_address"
      },
      {
        "astId": 270,
        "contract": "contracts/Lottery.sol:Lottery",
        "label": "link",
        "offset": 0,
        "slot": "3",
        "type": "t_address"
      },
      {
        "astId": 273,
        "contract": "contracts/Lottery.sol:Lottery",
        "label": "keyHash",
        "offset": 0,
        "slot": "4",
        "type": "t_bytes32"
      },
      {
        "astId": 276,
        "contract": "contracts/Lottery.sol:Lottery",
        "label": "requestConfirmations",
        "offset": 0,
        "slot": "5",
        "type": "t_uint16"
      },
      {
        "astId": 279,
        "contract": "contracts/Lottery.sol:Lottery",
        "label": "callbackGasLimit",
        "offset": 2,
        "slot": "5",
        "type": "t_uint32"
      },
      {
        "astId": 282,
        "contract": "contracts/Lottery.sol:Lottery",
        "label": "numWords",
        "offset": 6,
        "slot": "5",
        "type": "t_uint32"
      },
      {
        "astId": 285,
        "contract": "contracts/Lottery.sol:Lottery",
        "label": "s_randomWords",
        "offset": 0,
        "slot": "6",
        "type": "t_array(t_uint256)dyn_storage"
      },
      {
        "astId": 287,
        "contract": "contracts/Lottery.sol:Lottery",
        "label": "s_requestId",
        "offset": 0,
        "slot": "7",
        "type": "t_uint256"
      },
      {
        "astId": 291,
        "contract": "contracts/Lottery.sol:Lottery",
        "label": "s_addressToAmountFunded",
        "offset": 0,
        "slot": "8",
        "type": "t_mapping(t_address,t_uint256)"
      },
      {
        "astId": 294,
        "contract": "contracts/Lottery.sol:Lottery",
        "label": "s_funders",
        "offset": 0,
        "slot": "9",
        "type": "t_array(t_address)dyn_storage"
      },
      {
        "astId": 297,
        "contract": "contracts/Lottery.sol:Lottery",
        "label": "s_votersWantingToWithdraw",
        "offset": 0,
        "slot": "10",
        "type": "t_array(t_address)dyn_storage"
      },
      {
        "astId": 299,
        "contract": "contracts/Lottery.sol:Lottery",
        "label": "i_owner",
        "offset": 0,
        "slot": "11",
        "type": "t_address"
      },
      {
        "astId": 302,
        "contract": "contracts/Lottery.sol:Lottery",
        "label": "s_fooArray",
        "offset": 0,
        "slot": "12",
        "type": "t_array(t_uint256)dyn_storage"
      }
    ],
    "types": {
      "t_address": {
        "encoding": "inplace",
        "label": "address",
        "numberOfBytes": "20"
      },
      "t_array(t_address)dyn_storage": {
        "base": "t_address",
        "encoding": "dynamic_array",
        "label": "address[]",
        "numberOfBytes": "32"
      },
      "t_array(t_uint256)dyn_storage": {
        "base": "t_uint256",
        "encoding": "dynamic_array",
        "label": "uint256[]",
        "numberOfBytes": "32"
      },
      "t_bytes32": {
        "encoding": "inplace",
        "label": "bytes32",
        "numberOfBytes": "32"
      },
      "t_contract(LinkTokenInterface)152": {
        "encoding": "inplace",
        "label": "contract LinkTokenInterface",
        "numberOfBytes": "20"
      },
      "t_contract(VRFCoordinatorV2Interface)248": {
        "encoding": "inplace",
        "label": "contract VRFCoordinatorV2Interface",
        "numberOfBytes": "20"
      },
      "t_mapping(t_address,t_uint256)": {
        "encoding": "mapping",
        "key": "t_address",
        "label": "mapping(address => uint256)",
        "numberOfBytes": "32",
        "value": "t_uint256"
      },
      "t_uint16": {
        "encoding": "inplace",
        "label": "uint16",
        "numberOfBytes": "2"
      },
      "t_uint256": {
        "encoding": "inplace",
        "label": "uint256",
        "numberOfBytes": "32"
      },
      "t_uint32": {
        "encoding": "inplace",
        "label": "uint32",
        "numberOfBytes": "4"
      },
      "t_uint64": {
        "encoding": "inplace",
        "label": "uint64",
        "numberOfBytes": "8"
      }
    }
  }
}